:100000000C9429010C945A010C945A010C945A0135
:100010000C945A010C945A010C945A010C945A01F4
:100020000C945A010C945A010C945A010C945A01E4
:100030000C945A010C945A010C945A010C945A01D4
:100040000C945A010C945A010C945A010C945A01C4
:100050000C945A010C945A010C945A010C94DA072E
:100060000C945A010C944E080C9424080C945A01D8
:100070000C945A010C945A010C945A010C945A0194
:100080000C945A010C945A010C945A010C945A0184
:100090000C945A010C945A010C945A010C945A0174
:1000A0000C945A010C945A010C945A010C945A0164
:1000B0000C945A010C945A010C945A010C945A0154
:1000C0000C945A010C945A010C945A010C945A0144
:1000D0000C945A010C945A010C945A010C945A0134
:1000E0000C945A010C9445020C9437020C94E701CD
:1000F0000C947D020C9423020C94360E0C94CA02CC
:100100000C9414022E012E022E102E2034202E08C4
:1001100082088210822082402510252025402580DB
:1001200085028501820282012B082B042B022B0100
:1001300022012202220422082210222022402280B0
:100140002880284028202810280828042802280170
:100150002B803404340234018B808B408B208B1035
:100160008B088B048B028B012508250425022501B1
:1001700031013102310431083110312031403180F8
:100180008801880288048808881088208840888030
:1001900000002200250028002B002E003100340032
:1001A00002010000050108010B01000021002400EC
:1001B00027002A002D003000330001010000040157
:1001C00007010A01050505050705080808080202D8
:1001D00002020A0A080804040404010101010101E1
:1001E00001010303030303030303040707070C0CC4
:1001F0000C0C0C0C0C0C020202020606060606068B
:1002000006060B0B0B0B0B0B0B0B0102102020082F
:100210000810204010204080020102010804020161
:1002200001020408102040808040201008040201D0
:100230008004020180402010080402010804020129
:1002400001020408102040800102040810204080B0
:10025000360E11241FBECFEFD1E2DEBFCDBF00E0CE
:100260000CBF16E0A0E0B2E0EEE1FDE100E00BBF64
:1002700002C007900D92A23EB107D9F727E0A2EE87
:10028000B6E001C01D92A838B207E1F711E0C9E25B
:10029000D1E000E006C021970109802FFE010E94F5
:1002A000850EC832D10780E00807A9F70E948408AC
:1002B0000C948D0E0C940000CF93DF9390E0FC0122
:1002C000E65FFD4F24918C539E4FFC01849188235F
:1002D000D1F090E0880F991FFC01E655FE4FA591E3
:1002E000B491FC01E057FE4FC591D491623071F496
:1002F0009FB7F8943C91822F809583238C93E8815B
:100300002E2B28839FBFDF91CF9108958FB7F8944C
:10031000EC912E2B2C938FBFF6CF3FB7F8948091A2
:10032000E7069091E806A091E906B091EA0626B5A5
:10033000A89B05C02F3F19F00196A11DB11D3FBF1D
:10034000BA2FA92F982F8827BC01CD01620F711DEC
:10035000811D911D42E0660F771F881F991F4A95E6
:10036000D1F708958F929F92AF92BF92CF92DF9272
:10037000EF92FF920E948D014B015C0189E1C82E32
:10038000D12CE12CF12C0E948D01681979098A0980
:100390009B09683E734081059105A8F321E0C21ACC
:1003A000D108E108F10888EE880E83E0981EA11CB0
:1003B000B11CC114D104E104F10429F7FF90EF90BE
:1003C000DF90CF90BF90AF909F908F900895AF92A5
:1003D000BF92CF92DF92EF92FF920F931F93CF9332
:1003E000DF936C017B018B01040F151FEB015E0194
:1003F000AE18BF08C017D10759F06991D601ED9129
:10040000FC910190F081E02DC6011995892B79F7B7
:10041000C501DF91CF911F910F91FF90EF90DF9079
:10042000CF90BF90AF900895FC01538D448D252F40
:1004300030E0842F90E0821B930B541710F0CF967E
:10044000089501970895FC01918D828D981761F0B0
:10045000A28DAE0FBF2FB11D5D968C91928D9F5FC7
:100460009F73928F90E008958FEF9FEF0895FC01A6
:10047000918D828D981731F0828DE80FF11D858D59
:1004800090E008958FEF9FEF0895FC01918D228DEC
:10049000892F90E0805C9F4F821B91098F73992771
:1004A00008958BEE96E00E94450221E0892B09F425
:1004B00020E0822F0895FC01A48DA80FB92FB11D53
:1004C000A35ABF4F2C91848D90E001968F7399278A
:1004D000848FA689B7892C93A089B1898C91837068
:1004E00080648C93938D848D981306C00288F38961
:1004F000E02D80818F7D80830895EF92FF920F938E
:100500001F93CF93DF93EC0181E0888F9B8D8C8DBF
:1005100098131AC0E889F989808185FF15C09FB7B3
:10052000F894EE89FF896083E889F9898081837076
:10053000806480839FBF81E090E0DF91CF911F9125
:100540000F91FF90EF900895F62E0B8D10E00F5F46
:100550001F4F0F731127E02E8C8D8E110CC00FB61C
:1005600007FCFACFE889F989808185FFF5CFCE01B4
:100570000E945B02F1CFEB8DEC0FFD2FF11DE35AD2
:10058000FF4FF0829FB7F8940B8FEA89FB89808137
:100590008062CFCFCF93DF93EC01888D8823B9F0B1
:1005A000AA89BB89E889F9898C9185FD03C080817E
:1005B00086FD0DC00FB607FCF7CF8C9185FFF2CFFB
:1005C000808185FFEDCFCE010E945B02E9CFDF91F4
:1005D000CF91089580E090E0892B29F00E9451028C
:1005E00081110E94000080E090E0892B49F080E0BA
:1005F00090E0892B29F00E94000081110E940000E8
:1006000080E090E0892B49F080E090E0892B29F090
:100610000E94000081110E94000080E090E0892B80
:1006200049F080E090E0892B29F00E9400008111C0
:100630000C9400000895FC0101900020E9F7319727
:10064000AF01481B590BBC018BEE96E00C94E701FF
:100650008F929F92AF92BF920F931F93CF93DF938E
:10066000CDB7DEB7A1970FB6F894DEBF0FBECDBFF2
:1006700019A2423008F44AE08E010F5D1F4F842E0C
:10068000912CB12CA12CA50194010E94630EE62FA0
:10069000B901CA01EA30F4F4E05DD801EE938D01AE
:1006A000232B242B252B79F790E080E0109719F06D
:1006B000CD010E941B03A1960FB6F894DEBF0FBEBA
:1006C000CDBFDF91CF911F910F91BF90AF909F90C1
:1006D0008F900895E95CE1CFCF92DF92EF92FF9285
:1006E000CF93DF936B017C016DE28BEE96E00E946D
:1006F0007D02EC0166277727CB016C197D098E09F5
:100700009F094AE00E9428038C0F9D1FDF91CF9123
:10071000FF90EF90DF90CF900895CF93DF930E94EA
:100720001B03EC0184E592E00E941B038C0F9D1FCC
:10073000DF91CF9108950C941B03BC01990F880B96
:10074000990B4AE00C942803EAE6F1E08591949134
:100750002FB7F894FC0187FD16C0FF273081892F41
:100760008095832380832FBFECE6F1E085919491FF
:100770002FB7F894FC0187FD0AC0FF278081892BE1
:1007800080832FBFFFCFEF77FF27F160E7CFEF77B1
:10079000FF27F160F3CFCF93DF93A0E2B2E050E008
:1007A00040E080E061E0742FED9120E230E0E6343B
:1007B00038F4F0E0EE0FFF1FEC5FFE4F259134910F
:1007C00027FD15C0C22FC250DD0BFE01908193237F
:1007D000A1F0962F01C0990F7A95EAF7892B4F5F08
:1007E0005F4F44305105F9F6DF91CF910895F9013B
:1007F000EF77FF27F1603297E9CF90E0EFCFCF930B
:10080000DF93A7E2B2E050E040E080E061E0742FC7
:10081000ED9120E230E0E63438F4F0E0EE0FFF1F17
:10082000EC5FFE4F2591349127FD15C0C22FC250B9
:10083000DD0BFE0190819323A1F0962F01C0990F4B
:100840007A95EAF7892B4F5F5F4F44305105F9F6EF
:10085000DF91CF910895F901EF77FF27F16032978B
:10086000E9CF90E0EFCFCF93DF93A4E2B2E050E086
:1008700040E080E061E0742FED9120E230E0E6346A
:1008800038F4F0E0EE0FFF1FEC5FFE4F259134913E
:1008900027FD15C0C22FC250DD0BFE0190819323AE
:1008A000A1F0962F01C0990F7A95EAF7892B4F5F37
:1008B0005F4F43305105F9F6DF91CF910895F9016B
:1008C000EF77FF27F1603297E9CF90E0EFCFCF933A
:1008D000DF93ABE2B2E050E040E080E061E0742FF3
:1008E000ED9120E230E0E63438F4F0E0EE0FFF1F47
:1008F000EC5FFE4F2591349127FD15C0C22FC250E9
:10090000DD0BFE0190819323A1F0962F01C0990F7A
:100910007A95EAF7892B4F5F5F4F44305105F9F61E
:10092000DF91CF910895F901EF77FF27F1603297BA
:10093000E9CF90E0EFCFCF92DF92EF92FF92AB0141
:10094000BC01A2E1B2E030E020E06A017B01022EAE
:1009500004C0F594E794D794C7940A94D2F78C2DE9
:100960008170C82EED9180E290E0E63438F4F0E03A
:10097000EE0FFF1FEC5FFE4F85919491FC01E07834
:10098000FF27FFB6C1101AC0F894EF2B91F4FC01B9
:10099000FF27E080892F80958E218083FFBE2F5F07
:1009A0003F4F2630310589F6FF90EF90DF90CF90D2
:1009B0000895FC01EF77FF27F160EBCFF894EF2B60
:1009C00029F4FC01FF278081892BE7CFFC01EF7719
:1009D000FF27F160F8CFBF92CF92DF92EF92FF92A4
:1009E0000F931F93CF93DF93182F0E94B201C8E398
:1009F000D1E01111B0C087E592E00E949B03FE0197
:100A0000859194912FB7F894FC0187FD9CC0FF2736
:100A10003081892F8095832380832FBFE6E3F1E027
:100A2000859194912FB7F894FC0187FD90C0FF2722
:100A30003081892F8095832380832FBFE0E7F1E009
:100A4000859194912FB7F894FC0187FDAAC0FF27E8
:100A50008081892B80832FBFEEE1F1E08591949115
:100A60002FB7F894FC0187FDA0C0FF273081892FA4
:100A70008095832380832FBFECE1F1E085919491F1
:100A80002FB7F894FC0187FD94C0FF273081892F90
:100A90008095832380832FBFEAE1F1E085919491D3
:100AA0002FB7F894FC0187FD88C0FF273081892F7C
:100AB0008095832380832FBFE8E1F1E085919491B5
:100AC0002FB7F894FC0187FD7CC0FF273081892F68
:100AD0008095832380832FBFE6E1F1E08591949197
:100AE0002FB7F894FC0187FD70C0FF273081892F54
:100AF0008095832380832FBFC12CD12C7601C12FF9
:100B0000860120E4C216D104E104F10409F4A4C072
:100B1000C701B6010E949B040E943304B82E0E94B4
:100B2000CB03A601B4E056954795BA95E1F72B2D76
:100B300030E0B901642760FF4CC085E992E00E9473
:100B40008D030E94A403EF77FF27F16061CFEF7759
:100B5000FF27F1606DCF86E792E00E949B03FE01C4
:100B6000859194912FB7F894FC0187FD12C0FF275F
:100B70008081892B80832FBFE6E3F1E085919491FA
:100B80002FB7F894FC0187FD08C0FF278081892BCF
:100B900053CFEF77FF27F160EBCFEF77FF27F160BF
:100BA000F5CFEF77FF27F16053CFEF77FF27F160A5
:100BB0005DCFEF77FF27F16069CFEF77FF27F16017
:100BC00075CFEF77FF27F16081CFEF77FF27F160D7
:100BD0008DCFB6017695679576956795F901F59570
:100BE000E795E627E0FF03C08FEA92E0A8CF3595AE
:100BF0002795359527952C2520FF03C089EC92E099
:100C00009ECF90E0482740FF03C083EE92E097CF4D
:100C10009C0135952795622760FF03C08EEF92E017
:100C20008ECF9C0135952795359527952C2720FF4C
:100C300003C089E193E083CF2FEFC21AD20AE20A00
:100C4000F20A23E0959587952A95E1F7802780FFA2
:100C500057CF84E393E073CF8FE493E0DF91CF919C
:100C60001F910F91FF90EF90DF90CF90BF900C9469
:100C70008D03BF92CF92DF92EF92FF920F931F935B
:100C8000CF93DF93182F0E94B201C8E3D1E0111176
:100C9000B0C089E593E00E949B03FE018591949189
:100CA0002FB7F894FC0187FD9CC0FF273081892F66
:100CB0008095832380832FBFE6E3F1E085919491B3
:100CC0002FB7F894FC0187FD90C0FF273081892F52
:100CD0008095832380832FBFE0E7F1E08591949195
:100CE0002FB7F894FC0187FDAAC0FF273081892F18
:100CF0008095832380832FBFEEE1F1E0859194916D
:100D00002FB7F894FC0187FD9EC0FF273081892F03
:100D10008095832380832FBFECE1F1E0859194914E
:100D20002FB7F894FC0187FD92C0FF273081892FEF
:100D30008095832380832FBFEAE1F1E08591949130
:100D40002FB7F894FC0187FD86C0FF278081892B8F
:100D500080832FBFE8E1F1E0859194912FB7F8945B
:100D6000FC0187FD7CC0FF273081892F809583237C
:100D700080832FBFE6E1F1E0859194912FB7F8943D
:100D8000FC0187FD70C0FF273081892F8095832368
:100D900080832FBFC12CD12C7601C12F860120E486
:100DA000C216D104E104F10409F4A7C0C701B601D9
:100DB0000E949B040E943304B82E0E94CB03A6011C
:100DC000B5E056954795BA95E1F72B2D30E0B9017E
:100DD000642760FF4CC087E993E00E948D030E9466
:100DE000A403EF77FF27F16061CFEF77FF27F16072
:100DF0006DCF88E793E00E949B03FE01859194915B
:100E00002FB7F894FC0187FD12C0FF278081892B42
:100E100080832FBFE6E3F1E0859194912FB7F8949A
:100E2000FC0187FD08C0FF278081892B53CFEF7716
:100E3000FF27F160EBCFEF77FF27F160F5CFEF777A
:100E4000FF27F16053CFEF77FF27F1605FCFEF7798
:100E5000FF27F1606BCFEF77FF27F16077CFEF7758
:100E6000FF27F16081CFEF77FF27F1608DCFB601CB
:100E7000F3E076956795FA95E1F7F901F595E79531
:100E8000E627E0FF03C081EB93E0A7CF1695079517
:100E90003595279535952795202720FF03C08BECA6
:100EA00093E09BCF90E0482740FF03C085EE93E09E
:100EB00094CF9C0135952795622760FF03C080E0A1
:100EC00094E08BCF9C0135952795359527952C2758
:100ED00020FF03C08BE194E080CF2FEFC21AD20A2B
:100EE000E20AF20A23E0959587952A95E1F7802793
:100EF00080FF54CF86E394E070CF8FE493E0DF91DE
:100F0000CF911F910F91FF90EF90DF90CF90BF9006
:100F10000C948D03CF92DF92EF92FF92AB01BC0154
:100F2000A8E1B2E030E020E06A017B01022E04C0BB
:100F3000F594E794D794C7940A94D2F78C2D8170D6
:100F4000C82EED9180E290E0E63438F4F0E0EE0F48
:100F5000FF1FEC5FFE4F85919491FC01E078FF2725
:100F6000FFB6C1101AC0F894EF2B91F4FC01FF27D3
:100F7000E080892F80958E218083FFBE2F5F3F4FB9
:100F80002830310589F6FF90EF90DF90CF900895DB
:100F9000FC01EF77FF27F160EBCFF894EF2B29F4FA
:100FA000FC01FF278081892BE7CFFC01EF77FF272A
:100FB000F160F8CF1F920F920FB60F9211242F936A
:100FC0003F938F939F93AF93BF938091E30690914C
:100FD000E406A091E506B091E6063091E20623E032
:100FE000230F2D3758F50196A11DB11D2093E20660
:100FF0008093E3069093E406A093E506B093E6069B
:101000008091E7069091E806A091E906B091EA0682
:101010000196A11DB11D8093E7069093E806A09369
:10102000E906B093EA06BF91AF919F918F913F91EE
:101030002F910F900FBE0F901F90189526E8230F49
:101040000296A11DB11DD2CF1F920F920FB60F9223
:1010500011240BB60F922F933F934F935F936F938F
:101060007F938F939F93AF93BF93EF93FF938BEEF9
:1010700096E00E945B02FF91EF91BF91AF919F912B
:101080008F917F916F915F914F913F912F910F9031
:101090000BBE0F900FBE0F901F9018951F920F92CE
:1010A0000FB60F9211240BB60F922F938F939F932D
:1010B000EF93FF93E091FB06F091FC068081E091B5
:1010C0000107F091020782FD1DC090818091040705
:1010D0008F5F8F7320910507821741F0E09104071D
:1010E000F0E0E551F94F958F80930407FF91EF9160
:1010F0009F918F912F910F900BBE0F900FBE0F906D
:101100001F9018958081F2CF789484B5826084BD59
:1011100084B5816084BD85B5826085BD85B58160FB
:1011200085BD80916E00816080936E001092810079
:101130008091810082608093810080918100816034
:1011400080938100809180008160809380008091F5
:10115000B10084608093B1008091B0008160809381
:10116000B000809191008260809391008091910005
:1011700081608093910080919000816080939000C5
:101180008091A10082608093A1008091A100816084
:101190008093A1008091A00081608093A000809145
:1011A00021018260809321018091210181608093DF
:1011B00021018091200181608093200180917A003B
:1011C000846080937A0080917A00826080937A00B4
:1011D00080917A00816080937A0080917A008068A3
:1011E00080937A001092C100E091FB06F091FC061A
:1011F00082E08083E091F706F091F8061082E0919A
:10120000F906F091FA0680E1808310920307E091DD
:10121000FF06F091000786E08083E091FD06F091E3
:10122000FE06808180618083E091FD06F091FE06DC
:10123000808188608083E091FD06F091FE068081C8
:1012400080688083E091FD06F091FE0680818F7DAD
:10125000808381E594E00E948D0389E694E00E94FA
:101260008D038CE794E00E948D0381E994E00E9455
:101270009B0387E994E00E948D0382E594E00E943D
:101280008D0361E084E30E945C0161E083E30E94DE
:101290005C016CE6662E61E0762EF30185919491F7
:1012A0002FB7F894FC0187FDF4C1FF273081892F07
:1012B0008095832380832FBF0AE611E0F801859192
:1012C00094912FB7F894FC0187FDE7C1FF27308187
:1012D000892F8095832380832FBF62E088E20E945C
:1012E0005C0162E087E20E945C0162E084E20E94AD
:1012F0005C0162E08BE10E945C0162E086E10E9499
:101300005C0162E083E00E945C0162E084E00E9494
:101310005C0162E087E10E945C0162E08EE10E9474
:101320005C0162E089E30E945C0162E081E20E946C
:101330005C0162E086E00E945C0162E087E00E945E
:101340005C0162E088E10E945C0162E085E00E944D
:101350005C01C8E1D2E061E089910E945C0122E079
:10136000C032D207C1F7C2E1D2E058E1E52E52E027
:10137000F52E61E089910E945C01EC16FD06C9F72B
:1013800044E3E42E42E0F42ECFE2D2E061E0899122
:101390000E945C01EC16FD06C9F761E08AE10E943B
:1013A0005C0161E089E10E945C0161E086E30E94EA
:1013B0005C0161E08CE00E945C0161E08DE00E94D4
:1013C0005C0161E089E00E945C0161E08AE00E94CA
:1013D0005C0161E08BE00E945C01E8E3F1E0859153
:1013E00094912FB7F894FC0187FD5BC1FF273081F2
:1013F000892F8095832380832FBFE6E3F1E08591D9
:1014000094912FB7F894FC0187FD4FC1FF273081DD
:10141000892F8095832380832FBFE0E7F1E08591BA
:1014200094912FB7F894FC0187FD43C1FF273081C9
:10143000892F8095832380832FBFECE1F1E0859194
:1014400094912FB7F894FC0187FD37C1FF273081B5
:10145000892F8095832380832FBFEEE1F1E0859172
:1014600094912FB7F894FC0187FD2BC1FF273081A1
:10147000892F8095832380832FBFE6E1F1E085915A
:1014800094912FB7F894FC0187FD1FC1FF2730818D
:10149000892F8095832380832FBFE8E1F1E0859138
:1014A00094912FB7F894FC0187FD13C1FF27308179
:1014B000892F8095832380832FBF3AE1232E31E04B
:1014C000332EF101859194912FB7F894FC0187FD9B
:1014D00004C1FF273081892F8095832380832FBF0C
:1014E00062E088E00E945C01F801859194912FB739
:1014F000F894FC0187FDF5C0FF278081892B80834C
:101500002FBF812C912C5401839483EA94E00E9494
:101510009B034AE0C501B4010E94280384E592E0E0
:101520000E941B030E94B2018BEA94E00E949B037D
:1015300094E3C92E92E0D92E30E020E0F22EE901AA
:101540002032310509F4E8C0AFE2B2E050E040E0FB
:10155000C901042E02C0959587950A94E2F7682F79
:101560006170E62EED9180E290E0E63438F4F0E030
:10157000EE0FFF1FEC5FFE4F85919491BC016078E8
:101580007727E110B6C0EFB6F894FC01672B09F09D
:10159000ACC0FF278081909589238083EFBE4F5F89
:1015A0005F4F45305105A1F6E4E1F1E0859194915A
:1015B00087FDACC0482F4250550BFA01808189232A
:1015C000EE24E394811101C0E12CF60151906F01EA
:1015D0002F5F3F4F5E1409F4B1CF87EB94E00E9478
:1015E0008D038DEC94E00E949B036E2D70E090E0E3
:1015F00080E042E00E94280384ED94E00E949B0377
:10160000652D70E090E080E042E00E94280384E5D0
:1016100092E00E941B0381EE94E00E949B038F2DB9
:10162000817090E00E949D0385EE94E00E949B03F0
:101630008C2F8695817090E00E949D038AEE94E045
:101640000E949B03C2FB882780F990E00E949D03C3
:1016500080EF94E00E949B03C3FB882780F990E011
:101660000E949D0387EF94E00E949B03BE01B4E0BB
:1016700075956795BA95E1F7072E000C880B990BC5
:101680004AE00E94280384E592E00E941B030E9426
:10169000A403EF77FF27F16009CEEF77FF27F16012
:1016A00016CEEF77FF27F160A2CEEF77FF27F1602C
:1016B000AECEEF77FF27F160BACEEF77FF27F1606C
:1016C000C6CEEF77FF27F160D2CEEF77FF27F1602C
:1016D000DECEEF77FF27F160EACEEF77FF27F160EC
:1016E000F9CEEF77FF27F16008CFEF77FF27F160A2
:1016F00051CFEFB6F894FC01672B21F4FF278081CE
:10170000892B4BCFEF77FF27F160F9CFFC01EF7703
:10171000FF27F160329752CF8FE493E00E948D0350
:10172000F8012591349127FDC7C0422F4250550B37
:10173000FA012081F80185919491422F43239C0165
:1017400020783327442309F4C1C04FB7F894FC0133
:10175000232B09F0B7C0FF272081892F8095822392
:1017600080834FBFF3012591349127FDBCC0822FA8
:101770008250990BFC012081F30185919491422FB5
:1017800043239C0120783327442309F4B6C04FB784
:10179000F894FC01232B09F0ACC0FF272081892F8E
:1017A0008095822380834FBF0E94B201E0E7F1E081
:1017B000859194912FB7F894FC0187FDABC0FF276A
:1017C0003081892F8095832380832FBFEEE1F1E064
:1017D000859194912FB7F894FC0187FD9FC0FF2756
:1017E0003081892F8095832380832FBFECE1F1E046
:1017F000859194912FB7F894FC0187FD93C0FF2742
:101800003081892F8095832380832FBFF1018591BB
:1018100094912FB7F894FC0187FD88C0FF27808141
:10182000892B80832FBFE8E1F1E0859194912FB758
:10183000F894FC0187FD7EC0FF273081892F8095B9
:10184000832380832FBFE6E1F1E0859194912FB748
:10185000F894FC0187FD72C0FF273081892F8095A5
:10186000832380832FBF8FEF94E00E949B03C12CC2
:10187000D12C7601E601C11491E0D906E104F1040E
:1018800009F4B8C0C701B6010E948A070E94670424
:10189000582E0E94FF03A601440F452F441F550BED
:1018A0005195252D30E0B901642760FF4BC084E1DC
:1018B00095E00E948D03EBCEF901EF77FF27F160F1
:1018C000329737CFEF77FF27F16046CF4FB7F894C5
:1018D000FC01232B21F4FF278081892B41CFEF7757
:1018E000FF27F160F9CFF901EF77FF27F160329719
:1018F00042CFEF77FF27F16051CF4FB7F894FC014B
:10190000232B21F4FF278081892B4CCFEF77FF27F2
:10191000F160F9CFEF77FF27F16052CFEF77FF2724
:10192000F1605ECFEF77FF27F1606ACFEF77FF2797
:10193000F16075CFEF77FF27F1607FCFEF77FF275B
:10194000F1608BCFF60165E0F695E7956A95E1F7D2
:10195000B901759567956E2760FF03C08EE295E02B
:10196000A8CFB60193E0769567959A95E1F7D901EE
:10197000B595A795B595A795A627A0FF03C088E4C0
:1019800095E097CFD695C795B3E035952795BA954D
:10199000E1F72C2720FF03C082E695E08ACF90E094
:1019A000482740FF03C08CE795E083CF9C01359525
:1019B0002795E227E0FF03C087E995E07ACF9C01F5
:1019C0003595279535952795622760FF03C081EBF4
:1019D00095E06FCFEFEFCE1ADE0AEE0AFE0A73E053
:1019E000959587957A95E1F78C2780FF43CF8CEC0E
:1019F00095E05FCF8FE493E00E948D030E94B201D7
:101A0000E0E7F1E0859194912FB7F894FC0187FD10
:101A10007BC0FF278081892B80832FBFEEE1F1E01F
:101A2000859194912FB7F894FC0187FD71C0FF2731
:101A30003081892F8095832380832FBFECE1F1E0F3
:101A4000859194912FB7F894FC0187FD65C0FF271D
:101A50003081892F8095832380832FBFF101859169
:101A600094912FB7F894FC0187FD5AC0FF2730816D
:101A7000892F8095832380832FBFE8E1F1E0859152
:101A800094912FB7F894FC0187FD4EC0FF27308159
:101A9000892F8095832380832FBFE6E1F1E0859134
:101AA00094912FB7F894FC0187FD42C0FF27308145
:101AB000892F8095832380832FBF87EE95E00E9436
:101AC0009B03C12CD12C7601E601C114F1E0DF06A5
:101AD000E104F10409F485C0C701B6010E948A0738
:101AE0000E946704582E0E94FF03A60166E05695E7
:101AF00047956A95E1F7252D30E0B901642760FF2D
:101B00001BC08CEF95E0D5CEEF77FF27F16082CF39
:101B1000EF77FF27F1608CCFEF77FF27F16098CF49
:101B2000EF77FF27F160A3CFEF77FF27F160AFCF0B
:101B3000EF77FF27F160BBCFF60194E0F695E795CC
:101B40009A95E1F7B901759567956E2760FF03C017
:101B500086E196E0AECEB601769567957695679567
:101B6000D901B595A795B595A795A627A0FF03C060
:101B700080E396E09ECE73E0359527957A95E1F760
:101B80002C2720FF03C08AE496E093CE90E04827FC
:101B900040FF03C084E696E08CCE9C0135952795E6
:101BA000E227E0FF03C08FE796E083CE9C013595E6
:101BB000279535952795622760FF03C08AE996E04F
:101BC00078CE2FEFC21AD20AE20AF20A23E09595E4
:101BD00087952A95E1F7C827C0FF76CF85EB96E079
:101BE00068CE8FE493E00E948D0380E00E94390666
:101BF00081E00E94390680E00E94EB0481E00E94AF
:101C0000EB045FEF851A950AA50AB50A65E1861609
:101C10009104A104B10409F078CC80ED96E00E9413
:101C20008D03F801859194912FB7F894FC0187FDFD
:101C300015C0FF278081892B80832FBFF3018591F9
:101C400094912FB7F894FC0187FD0CC0FF273081D9
:101C5000892F8095832380832FBFFFCFEF77FF27C6
:101C6000F160E8CFEF77FF27F160F1CFEBEEF6E020
:101C70001382128288EE93E0A0E0B0E08483958323
:101C8000A683B78384E092E09183808385EC90E023
:101C90009587848784EC90E09787868780EC90E036
:101CA000918B808B81EC90E0938B828B82EC90E027
:101CB000958B848B86EC90E0978B868B118E128EA1
:101CC000138E148E0895A1E21A2EAA1BBB1BFD01D0
:101CD0000DC0AA1FBB1FEE1FFF1FA217B307E4070B
:101CE000F50720F0A21BB30BE40BF50B661F771F63
:101CF000881F991F1A9469F7609570958095909543
:101D00009B01AC01BD01CF010895EE0FFF1F881F9D
:0E1D10008BBF0790F691E02D1994F894FFCF49
:101D1E00000000007D02E7011402CA024502230200
:101D2E0037021F2037383A2C1C1D222325262A293C
:101D3E00060718051E3921160304172827241B0928
:101D4E000A0B0C0D0101010100010101010101014C
:101D5E000001010101010101000101010101010167
:101D6E00010101010D0A0054657374696E67204903
:101D7E0043342D4943323620533D312033413D30DB
:101D8E002033423D300054657374696E67204943B9
:101D9E00342D4943323620533D312033413D3120DD
:101DAE0033423D31000A4572726F72202D20494335
:101DBE00343A314220696E636F7272656374000A41
:101DCE004572726F72202D204943343A3242206997
:101DDE006E636F7272656374000A4572726F722061
:101DEE002D204943343A344220696E636F72726516
:101DFE006374000A4572726F72202D204943323689
:101E0E003A314220696E636F7272656374000A45DF
:101E1E0072726F72202D20494332363A3242206957
:101E2E006E636F7272656374000A4572726F722010
:101E3E002D20494332363A334220696E636F7272F7
:101E4E00656374000A4572726F72202D2049433209
:101E5E00363A344220696E636F7272656374002085
:101E6E002D205061737365640054657374696E67D9
:101E7E00204943342D4943323620533D30203341DF
:101E8E003D302033423D300054657374696E6720D7
:101E9E004943342D4943323620533D302033413DA2
:101EAE00312033423D31000A4572726F72202D206F
:101EBE004943343A314120696E636F7272656374BF
:101ECE00000A4572726F72202D204943343A324116
:101EDE0020696E636F7272656374000A4572726F69
:101EEE0072202D204943343A344120696E636F725B
:101EFE0072656374000A4572726F72202D20494319
:101F0E0032363A314120696E636F727265637400C6
:101F1E000A4572726F72202D20494332363A324191
:101F2E0020696E636F7272656374000A4572726F18
:101F3E0072202D20494332363A334120696E636F49
:101F4E007272656374000A4572726F72202D204999
:101F5E004332363A344120696E636F727265637430
:101F6E00000A3D3D3D3D3D3D3D3D3D3D3D3D3D3D03
:101F7E003D3D3D3D3D3D3D3D002020202020205A51
:101F8E00584D5558205465737465720020206D7934
:101F9E00726574726F73746F72652E636F2E756BCC
:101FAE000020202020200056657273696F6E20314C
:101FBE002E30000A506173733A20005465737469B1
:101FCE006E6720434153000A4572726F7220776923
:101FDE00746820434153206C6F67696300526561DA
:101FEE00643A20002053686F756C642062653A2055
:101FFE000057523A002052443A00204131353A00FF
:10200E00204D5245513A00204D5152444C3A005405
:10201E00657374696E67204943332D494332352009
:10202E00533D30000A4572726F72202D20494333A2
:10203E003A314120696E636F7272656374000A45AE
:10204E0072726F72202D204943333A324120696EED
:10205E00636F7272656374000A4572726F72202D1F
:10206E00204943333A334120696E636F7272656360
:10207E0074000A4572726F72202D204943333A3430
:10208E004120696E636F7272656374000A457272E5
:10209E006F72202D20494332353A314120696E63EB
:1020AE006F7272656374004572726F72202D2049D3
:1020BE004332353A324120696E636F7272656374D2
:1020CE00000A4572726F72202D20494332353A3321
:1020DE004120696E636F7272656374000A45727295
:1020EE006F72202D20494332353A344120696E6398
:1020FE006F72726563740054657374696E672049FC
:10210E0043332D4943323520533D31000A45727217
:10211E006F72202D204943333A314220696E636F2E
:10212E007272656374000A4572726F72202D2049B7
:10213E0043333A324220696E636F72726563740084
:10214E000A4572726F72202D204943333A33422072
:10215E00696E636F7272656374000A4572726F7294
:10216E00202D204943333A344220696E636F7272D8
:10217E00656374000A4572726F72202D20494332D6
:10218E00353A314220696E636F7272656374000A6C
:10219E004572726F72202D20494332353A324220F9
:1021AE00696E636F7272656374000A4572726F7244
:1021BE00202D20494332353A334220696E636F72C7
:1021CE0072656374000A4572726F72202D20494346
:1021DE0032353A344220696E636F727265637400F1
:1021EE000A416C6C2074657374732070617373652F
:0221FE0064007B
:00000001FF
